:1000000012C019C018C017C016C015C014C013C044
:1000100012C011C010C00FC00EC00DC00CC00BC06C
:100020000AC009C008C011241FBECFE5D4E0DEBF5E
:10003000CDBF47D05EC0E4CF10BC81E089B988E174
:100040008AB908955D9BFECF8CB908955F9BFECF62
:100050008CB1089511B881E080B984E086BF08951D
:1000600084EA86BF06B607FEFDCF089584E986BF01
:10007000089583B984E886BF06B607FEFDCF0895CC
:1000800084EC86BF06B607FEFDCF83B1089581B12B
:10009000887F0895CF93C82F8F9AE2DF8C2FE9DFF6
:1000A00080E0E7DF89E1E5DF83E0E3DF8C2FE1DF5C
:1000B00080E0DFDF82E6DDDF8C2F8160DADFCF9149
:1000C000DFCFBADFC7DF8AE1BDDF8BE2BBDF8C2F7A
:1000D000B9DF82E5DFDFC82F92B3905892BB2FEFD4
:1000E0008FE995E0215080409040E1F700C000008A
:0600F000EACFF894FFCFF7
:00000001FF
