:1000000012C019C018C017C016C015C014C013C044
:1000100012C011C010C00FC00EC00DC00CC00BC06C
:100020000AC009C008C011241FBECFE5D4E0DEBF5E
:10003000CDBF70D089C0E4CF10BC81E089B988E120
:100040008AB908955D9BFECF8CB908955F9BFECF62
:100050008CB1089511B881E080B984E086BF08951D
:1000600084EA86BF06B607FEFDCF089584E986BF01
:10007000089583B984E886BF06B607FEFDCF0895CC
:1000800084EC86BF06B607FEFDCF83B1089584E8F1
:1000900086BF06B607FEFDCF83B1089581B1887F84
:1000A0000895CF93DF931F92CDB7DEB78983D8DF52
:1000B0008981DFDF80E0DDDF88E1DBDF83E0D9DF1E
:1000C00084E986BF0F90DF91CF910895CF93DF939E
:1000D000C82FC6DF8F9A8C2FCCDF80E0CADF8FE479
:1000E000C8DF83E5C6DFD3DF8C2FC3DF80E0C1DF4D
:1000F00082E6BFDF83E5BDDFCADFD82F8C2FB9DFF3
:1001000080E0B7DF85E1B5DF81E0B3DF8D2FDF91E0
:10011000CF91089591DF9EDF82E5C3DF8AE192DF10
:100120008BE290DF8C2F8EDF82E5D0DFC82F92B379
:10013000905892BB2FEF8FE995E02150804090407E
:0C014000E1F700C00000EACFF894FFCF08
:00000001FF
